:100000000C942A000C94FC080C94EB090C94A90A9B
:100010000C9447000C9447000C9447000C94470044
:100020000C9447000C9447000C94AA070C94770793
:100030000C9447000C9447000C9447000C94470024
:100040000C9447000C9447000C9447000C94470014
:100050000C94470011241FBECFE5D8E0DEBFCDBF12
:1000600010E0A0E6B0E0E4E5F1E402C005900D92F6
:10007000A837B107D9F710E0A8E7B0E001C01D929A
:10008000A738B107E1F70E94A91B0C94A8200C9493
:100090000000EF92FF920F931F937B018C0120E0F1
:1000A00030E040E05FE40E94F50388238CF0C80153
:1000B000B70120E030E040E05FE40E94C1010E940F
:1000C00055049B01AC01205030404040504806C0D0
:1000D000C801B7010E9455049B01AC01B901CA01D6
:1000E0001F910F91FF90EF900895A0E0B0E0EBE733
:1000F000F0E00C947120DC012B01FA019C9192300C
:1001000008F439C1EB018881823008F433C194309E
:1001100069F4843009F02FC111969C91119789815F
:10012000981709F428C1A0E6B0E025C1843009F48D
:1001300021C18230A9F4923009F01DC19A01AD01AC
:1001400088E0EA010990AE01E90109929E0181501F
:10015000C1F7E201898111969C918923818308C1AD
:10016000923009F407C112962D903C901397EB0141
:100170008A819B811496AD90BD90CD90DC901797AD
:10018000EC80FD800E811F819101281B390BB90184
:1001900037FF04C066277727621B730B6032710537
:1001A0000CF061C0121613066CF537014801062EDB
:1001B00004C096948794779467940A94D2F721E0C8
:1001C00030E040E050E004C0220F331F441F551FB1
:1001D0006A95D2F721503040404050402E213F21B7
:1001E00040235123211531054105510521F021E01E
:1001F00030E040E050E079018A01E628F72808293C
:1002000019293CC0232BD1F1260E371E350146019A
:10021000062E04C096948794779467940A94D2F734
:1002200021E030E040E050E004C0220F331F441FC3
:10023000551F6A95D2F721503040404050402A2146
:100240003B214C215D21211531054105510521F04E
:1002500021E030E040E050E059016A01A628B728CB
:10026000C828D9280BC0821593052CF01C01AA249C
:10027000BB24650103C0EE24FF24870111969C91E5
:10028000D20111968C91981709F445C0992339F041
:10029000A80197012A193B094C095D0906C0A6016E
:1002A00095012E193F09400B510B57FD08C01182D3
:1002B0003382228224833583468357831DC081E0A5
:1002C00081833382228288279927DC01821B930B4A
:1002D000A40BB50B84839583A683B7830DC0220F2F
:1002E000331F441F551F24833583468357838281E0
:1002F000938101979383828324813581468157813D
:10030000DA01C9010197A109B1098F5F9F4FAF4F72
:10031000BF4328F30BC0918333822282EA0CFB1C7B
:100320000C1D1D1DE482F5820683178383E0808304
:10033000248135814681578157FF1AC0C901AA27F8
:1003400097FDA095BA2F81709070A070B0705695EF
:10035000479537952795822B932BA42BB52B848318
:100360009583A683B7838281938101969383828349
:10037000DF0101C0D201CD01CDB7DEB7E2E10C94BF
:100380008D20A0E2B0E0E7ECF1E00C947D206983E1
:100390007A838B839C832D833E834F835887E9E048
:1003A000EE2EF12CEC0EFD1ECE010196B7010E943F
:1003B0007E058E010F5E1F4FCE010596B8010E948B
:1003C0007E058A8991E089278A8BC701B801AE0131
:1003D000475E5F4F0E9475000E94A904A096E6E068
:1003E0000C949920A0E2B0E0E8EFF1E00C947D20BD
:1003F00069837A838B839C832D833E834F835887C5
:10040000F9E0EF2EF12CEC0EFD1ECE010196B701A6
:100410000E947E058E010F5E1F4FCE010596B8012A
:100420000E947E05C701B801AE01475E5F4F0E9482
:1004300075000E94A904A096E6E00C949920A0E221
:10044000B0E0E5E2F2E00C94712069837A838B835B
:100450009C832D833E834F835887CE010196BE0136
:10046000675F7F4F0E947E05CE010596BE016F5EDD
:100470007F4F0E947E059985923088F0898982306D
:10048000C8F0943019F4823051F404C0843029F457
:10049000923081F480E690E0C6C0923049F420E0CA
:1004A0009A858A89981321E02A87CE010996BBC0D4
:1004B000823049F420E09A858A89981321E02A8BBA
:1004C000CE014196B0C02D843E844F8458886D88FB
:1004D0007E888F88988CEE24FF248701AA24BB2471
:1004E000650140E050E060E070E0E0E0F0E0C10174
:1004F00081709070892BE9F0E60CF71C081D191D1E
:100500009A01AB012A0D3B1D4C1D5D1D80E090E062
:10051000A0E0B0E0E614F7040805190520F481E036
:1005200090E0A0E0B0E0BA01A901480F591F6A1F8E
:100530007B1FAA0CBB1CCC1CDD1C97FE08C081E0F5
:1005400090E0A0E0B0E0A82AB92ACA2ADB2A3196B6
:10055000E032F10549F0660C771C881C991C569412
:10056000479437942794C3CFFA85EA892B893C892D
:100570008B859C85280F391F2E5F3F4F17C0CA01FE
:1005800081709070892B61F016950795F794E79428
:1005900080E090E0A0E0B0E8E82AF92A0A2B1B2BC3
:1005A00076956795579547952F5F3F4F77FDE7CF36
:1005B0000CC0440F551F661F771F17FD4160EE0CDE
:1005C000FF1C001F111F21503040403090E05907A0
:1005D00090E0690790E4790760F32B8F3C8FDB0193
:1005E000CA018F779070A070B07080349105A1051A
:1005F000B10561F447FD0AC0E114F10401051105DC
:1006000029F0405C5F4F6F4F7F4F40781A8EFE1786
:1006100011F081E08A8F4D8F5E8F6F8F78A383E01A
:10062000898FCE0149960E94A904A096E2E10C941C
:100630008D20A8E1B0E0EFE1F3E00C94792069832C
:100640007A838B839C832D833E834F835887B9E0C5
:10065000EB2EF12CEC0EFD1ECE010196B7010E948F
:100660007E058E010F5E1F4FCE010596B8010E94D8
:100670007E052985223008F47EC03989323010F495
:10068000B8017CC08A859A8989278A87243011F02D
:10069000223031F4231709F06EC060E670E06EC0BE
:1006A000343039F41D861E861F86188A1C861B86E8
:1006B00004C0323021F484E08987B7015FC02B8504
:1006C0003C858B899C89281B390B3C872B87ED84C3
:1006D000FE840F851889AD88BE88CF88D88CEA142F
:1006E000FB040C051D0540F4EE0CFF1C001F111F40
:1006F000215030403C872B8720E030E040E050E044
:1007000080E090E0A0E0B0E460E070E0EA14FB0478
:100710000C051D0540F0282B392B4A2B5B2BEA18C2
:10072000FB080C091D09B695A79597958795EE0CC2
:10073000FF1C001F111F6F5F7F4F6F31710531F775
:10074000DA01C9018F779070A070B0708034910584
:10075000A105B10561F427FD0AC0E114F10401050A
:10076000110529F0205C3F4F4F4F5F4F20782D87B8
:100770003E874F87588BBE01675F7F4FCB010E943A
:10078000A9046896EAE00C949520A8E1B0E0EBECAF
:10079000F3E00C947D2069837A838B839C832D8383
:1007A0003E834F83588789E0E82EF12CEC0EFD1E26
:1007B000CE010196B7010E947E058E010F5E1F4F8C
:1007C000CE010596B8010E947E058985823040F0F1
:1007D0008989823028F0C701B8010E94F60501C05E
:1007E0008FEF6896E6E00C949920A8E1B0E0EBEF7B
:1007F000F3E00C947D2069837A838B839C832D8323
:100800003E834F83588789E0E82EF12CEC0EFD1EC5
:10081000CE010196B7010E947E058E010F5E1F4F2B
:10082000CE010596B8010E947E058985823040F090
:100830008989823028F0C701B8010E94F60501C0FD
:100840008FEF6896E6E00C949920A8E1B0E0EBE227
:10085000F4E00C947D2069837A838B839C832D83C1
:100860003E834F83588789E0E82EF12CEC0EFD1E65
:10087000CE010196B7010E947E058E010F5E1F4FCB
:10088000CE010596B8010E947E058985823040F030
:100890008989823028F0C701B8010E94F60501C09D
:1008A00081E06896E6E00C949920ACE0B0E0EBE5DE
:1008B000F4E00C94812069837A838B839C83CE013E
:1008C0000196BE016B5F7F4F0E947E058D81823055
:1008D00061F1823050F1843021F48E81882351F10E
:1008E0002EC02F81388537FD20C06E812F31310514
:1008F0001CF06623F9F023C08EE190E0821B930B7D
:1009000029853A854B855C8504C056954795379572
:1009100027958A95D2F76623B1F05095409530958A
:1009200021953F4F4F4F5F4F0EC020E030E040E039
:1009300050E009C02FEF3FEF4FEF5FE704C020E02A
:1009400030E040E050E8B901CA012C96E2E00C9496
:100950009D20DF92EF92FF920F931F93FC01E480A2
:10096000F58006811781D1808081823048F480E053
:1009700090E0A0E1B0E0E82AF92A0A2B1B2BA5C0E1
:10098000843009F49FC0823021F4EE24FF248701D3
:1009900005C0E114F1040105110519F4E0E0F0E0EF
:1009A00096C0628173819FEF623879070CF05BC05B
:1009B00022E83FEF261B370B2A3131052CF020E0CF
:1009C00030E040E050E02AC0B801A701022E04C088
:1009D00076956795579547950A94D2F781E090E010
:1009E000A0E0B0E004C0880F991FAA1FBB1F2A9582
:1009F000D2F70197A109B1098E219F21A023B1232C
:100A00000097A105B10521F081E090E0A0E0B0E001
:100A10009A01AB01282B392B4A2B5B2BDA01C90138
:100A20008F779070A070B07080349105A105B105EA
:100A300039F427FF09C0205C3F4F4F4F5F4F04C080
:100A4000215C3F4F4F4F5F4FE0E0F0E02030A0E0EF
:100A50003A07A0E04A07A0E45A0710F0E1E0F0E00E
:100A600079018A0127C06038710564F5FB01E158FE
:100A7000FF4FD801C7018F779070A070B07080349D
:100A80009105A105B10539F4E7FE0DC080E490E0C1
:100A9000A0E0B0E004C08FE390E0A0E0B0E0E80E9A
:100AA000F91E0A1F1B1F17FF05C016950795F7941F
:100AB000E794319687E016950795F794E7948A9521
:100AC000D1F705C0EE24FF248701EFEFF0E06E2F91
:100AD000679566276795902F9F77D794DD24D794E5
:100AE0008E2F8695492F462B582F5D29B701CA01B5
:100AF0001F910F91FF90EF90DF900895FC01DB01B3
:100B0000408151812281622F6F7770E0221F22275E
:100B1000221F9381892F880F822B282F30E0991F65
:100B20009927991F11969C93119721153105A9F5C5
:100B3000411551056105710511F482E037C082E865
:100B40009FEF13969C938E9312979A01AB0167E0E7
:100B5000220F331F441F551F6A95D1F783E08C93F2
:100B60000DC0220F331F441F551F12968D919C916B
:100B70001397019713969C938E931297203080E0E1
:100B8000380780E0480780E4580758F314962D93FF
:100B90003D934D935C93179708952F3F310579F45A
:100BA000411551056105710519F484E08C93089590
:100BB00064FF03C081E08C9312C01C9210C02F57B9
:100BC000304013963C932E93129783E08C9387E0EA
:100BD000440F551F661F771F8A95D1F770641496CE
:100BE0004D935D936D937C93179708951F93DC014C
:100BF000FB019C91923008F447C08081823008F458
:100C000043C0943051F411961C91843099F5818140
:100C1000682F70E0611B71093FC0843021F0923071
:100C200031F48230B9F18181882389F12DC0119688
:100C30001C9111978230F1F081811817D9F4129626
:100C40002D913C911397828193818217930794F0A1
:100C500028173907BCF014968D919D910D90BC9189
:100C6000A02D2481358146815781281739074A07ED
:100C70005B0718F4112341F00AC082179307A407F9
:100C8000B50740F4112319F061E070E005C06FEF83
:100C90007FEF02C060E070E0CB011F910895DF9309
:100CA000CF9300D00F92CDB7DEB79B838A83198292
:100CB0008A819B81009719F482E089839EC0EA8132
:100CC000FB8180818823B1F4A3E5B0E0E3E5F0E0A7
:100CD00080818F7B8C93A3E5B0E0E3E5F0E0808139
:100CE000877F8C93A9E5B0E0E9E5F0E08081816041
:100CF0008C9370C0EA81FB8180818130E1F4A3E5AF
:100D0000B0E0E3E5F0E080818F7B8C93A3E5B0E079
:100D1000E3E5F0E0808188608C93A9E5B0E0E9E547
:100D2000F0E0808182608C93ACE5B0E0EA81FB81E9
:100D300082818C934FC0EA81FB818081823019F5DA
:100D4000A3E5B0E0E3E5F0E0808180648C93A3E567
:100D5000B0E0E3E5F0E08081877F8C93A3E5B0E02D
:100D6000E3E5F0E0808180618C93A3E5B0E0E3E50A
:100D7000F0E0808180628C93ACE5B0E0EA81FB8199
:100D800082818C9327C0EA81FB818081833011F5B9
:100D9000A3E5B0E0E3E5F0E0808180648C93A3E517
:100DA000B0E0E3E5F0E0808188608C93A3E5B0E0FB
:100DB000E3E5F0E0808180618C93A3E5B0E0E3E5BA
:100DC000F0E0808180628C93ACE5B0E0EA81FB8149
:100DD00082818C93A3E5B0E0E3E5F0E08081887F39
:100DE0008C93A3E5B0E0E3E5F0E09081EA81FB813C
:100DF0008181892B8C9381E0898389810F900F9069
:100E00000F90CF91DF910895DF93CF9300D00F9291
:100E1000CDB7DEB79B838A8319828A819B81009735
:100E200019F482E089830AC0EA81FB81838194817D
:100E3000909379008093780081E0898389810F9075
:100E40000F900F90CF91DF910895DF93CF9300D053
:100E50000F92CDB7DEB79B838A8319828A819B81EB
:100E6000009719F482E089830AC0EA81FB818381BB
:100E7000948190937B0080937A0081E089838981BB
:100E80000F900F900F90CF91DF910895DF93CF9344
:100E9000CDB7DEB7A9E5B0E0E9E5F0E0808182609A
:100EA0008C9381E0CF91DF910895DF93CF93CDB7FD
:100EB000DEB7A9E5B0E0E9E5F0E080818D7F8C93B5
:100EC00081E0CF91DF910895DF93CF9300D0CDB72C
:100ED000DEB78A831982ECE5F0E08A81808381E0C5
:100EE000898389810F900F90CF91DF9108951F9290
:100EF0000F920FB60F9211242F933F934F935F934E
:100F00006F937F938F939F93AF93BF93EF93FF93D1
:100F1000DF93CF93CDB7DEB78091780090917900C1
:100F2000009729F0E0917800F09179000995CF9130
:100F3000DF91FF91EF91BF91AF919F918F917F9141
:100F40006F915F914F913F912F910F900FBE0F9036
:100F50001F9018951F920F920FB60F9211242F9386
:100F60003F934F935F936F937F938F939F93AF9331
:100F7000BF93EF93FF93DF93CF93CDB7DEB780910D
:100F80007A0090917B00009729F0E0917A00F0912F
:100F90007B000995CF91DF91FF91EF91BF91AF91C8
:100FA0009F918F917F916F915F914F913F912F9181
:100FB0000F900FBE0F901F901895DF93CF930F9255
:100FC000CDB7DEB71982EAE3F0E08FE38083E7E391
:100FD000F0E01082E4E3F0E01082E1E3F0E0108260
:100FE000EBE3F0E01082E8E3F0E084E08083E5E307
:100FF000F0E01082E2E3F0E08CE0808381E089831E
:1010000089810F90CF91DF910895DF93CF930F9255
:10101000CDB7DEB71982AFE5B0E0EFE5F0E0808153
:1010200080688C9381E0898389810F90CF91DF91D3
:101030000895DF93CF930F92CDB7DEB71982AFE556
:10104000B0E0EFE5F0E080818F778C9381E08983D9
:1010500089810F90CF91DF910895DF93CF9300D0D6
:1010600000D0CDB7DEB78A8319828A81843008F038
:101070005DC08A81282F30E03C832B838B819C814B
:101080008130910521F12B813C81223031052CF4F6
:101090008B819C81009761F046C02B813C8122307E
:1010A000310521F18B819C818330910571F13BC029
:1010B000A5E5B0E0E5E5F0E080818E7F8C93A5E5C5
:1010C000B0E0E5E5F0E080818D7F8C932CC0A5E554
:1010D000B0E0E5E5F0E0808181608C93A5E5B0E0CB
:1010E000E5E5F0E080818D7F8C931DC0A5E5B0E043
:1010F000E5E5F0E080818E7F8C93A5E5B0E0E5E545
:10110000F0E0808182608C930EC0A5E5B0E0E5E55B
:10111000F0E0808181608C93A5E5B0E0E5E5F0E04A
:10112000808182608C9381E0898302C083E089831F
:10113000ABE5B0E0EBE5F0E0808180648C938981E1
:101140000F900F900F900F90CF91DF910895DF9344
:10115000CF9300D00F92CDB7DEB79B838A831982DD
:10116000EAE5F0E080818295869586958370882FE8
:1011700090E081709070882331F0EA81FB811082C9
:1011800081E0898313C0EAE5F0E08081829586954D
:1011900086958370882F90E081709070009731F46D
:1011A000EA81FB8181E0808381E0898389810F90DE
:1011B0000F900F90CF91DF910895DF93CF9300D0E0
:1011C0000F92CDB7DEB79B838A8319828A819B8178
:1011D000009749F08A819B8190937D0080937C00E9
:1011E00081E0898302C082E0898389810F900F901A
:1011F0000F90CF91DF9108951F920F920FB60F922B
:1012000011242F933F934F935F936F937F938F930B
:101210009F93AF93BF93EF93FF93DF93CF93CDB79C
:10122000DEB7E0917C00F0917D000995CF91DF91D0
:10123000FF91EF91BF91AF919F918F917F916F91AE
:101240005F914F913F912F910F900FBE0F901F9084
:101250001895DF93CF9300D000D0CDB7DEB78A8347
:1012600019828A81843008F05DC08A81282F30E09D
:101270003C832B838B819C818130910521F12B81D3
:101280003C81223031052CF48B819C81009761F0E8
:1012900046C02B813C812230310521F18B819C811C
:1012A0008330910571F13BC0A5E5B0E0E5E5F0E0E4
:1012B00080818B7F8C93A5E5B0E0E5E5F0E080814F
:1012C000877F8C932CC0A5E5B0E0E5E5F0E0808158
:1012D00084608C93A5E5B0E0E5E5F0E08081877F50
:1012E0008C931DC0A5E5B0E0E5E5F0E080818B7F43
:1012F0008C93A5E5B0E0E5E5F0E0808188608C9313
:101300000EC0A5E5B0E0E5E5F0E0808184608C9357
:10131000A5E5B0E0E5E5F0E0808188608C9381E0B0
:10132000898302C083E08983ABE5B0E0EBE5F0E0C0
:10133000808180688C9389810F900F900F900F901F
:10134000CF91DF910895DF93CF9300D00F92CDB767
:10135000DEB79B838A831982EAE5F0E08081881FEB
:101360008827881F813031F4EA81FB81108281E077
:1013700089830BC0EAE5F0E08081882334F0EA81BC
:10138000FB8181E0808381E0898389810F900F90C8
:101390000F90CF91DF910895DF93CF9300D00F92FC
:1013A000CDB7DEB79B838A8319828A819B810097A0
:1013B00049F08A819B8190937F0080937E0081E039
:1013C000898302C082E0898389810F900F900F90FA
:1013D000CF91DF9108951F920F920FB60F921124B3
:1013E0002F933F934F935F936F937F938F939F932D
:1013F000AF93BF93EF93FF93DF93CF93CDB7DEB758
:10140000E0917E00F0917F000995CF91DF91FF91EF
:10141000EF91BF91AF919F918F917F916F915F916C
:101420004F913F912F910F900FBE0F901F901895E5
:10143000DF93CF9300D000D0CDB7DEB78A83198277
:101440008A81843010F58A81282F30E03C832B83F9
:101450008B819C818230910531F02B813C8123303E
:10146000310549F00FC0A4E5B0E0E4E5F0E080818B
:101470008F7B8C9307C0A4E5B0E0E4E5F0E08081C9
:1014800080648C9381E0898302C083E08983ABE52B
:10149000B0E0EBE5F0E0808180628C9389810F9071
:1014A0000F900F900F90CF91DF910895DF93CF931E
:1014B00000D00F92CDB7DEB79B838A831982EAE50D
:1014C000F0E08081829586958770882F90E081700A
:1014D0009070882331F0EA81FB81108281E089835A
:1014E00012C0EAE5F0E08081829586958770882FAA
:1014F00090E081709070009731F4EA81FB8181E087
:10150000808381E0898389810F900F900F90CF9124
:10151000DF910895DF93CF9300D00F92CDB7DEB760
:101520009B838A8319828A819B81009749F08A81F3
:101530009B81909381008093800081E0898302C029
:1015400082E0898389810F900F900F90CF91DF9176
:1015500008951F920F920FB60F9211242F933F936D
:101560004F935F936F937F938F939F93AF93BF93AB
:10157000EF93FF93DF93CF93CDB7DEB7E091800079
:10158000F09181000995CF91DF91FF91EF91BF918B
:10159000AF919F918F917F916F915F914F913F910B
:1015A0002F910F900FBE0F901F901895DF93CF9340
:1015B00000D000D0CDB7DEB78A8319828A8183300C
:1015C00068F58A81282F30E03C832B838B819C81B6
:1015D0008130910589F02B813C8122303105A1F0C9
:1015E0008B819C810097B9F4ABE5B0E0EBE5F0E0CE
:1015F00080818F7B8C930FC0ABE5B0E0EBE5F0E032
:1016000080818F778C9307C0ABE5B0E0EBE5F0E02D
:1016100080818F7D8C9381E0898302C083E0898300
:1016200089810F900F900F900F90CF91DF910895C7
:10163000DF93CF9300D000D000D0CDB7DEB78A8340
:101640006B834C8319828A81282F30E03E832D835F
:101650008D819E818130910509F448C02D813E81A4
:10166000223031052CF48D819E81009771F0D1C01C
:101670002D813E812230310509F469C08D819E8122
:101680008330910509F494C0C4C08C818823A9F4E7
:10169000AAE3B0E0EAE3F0E08081482F8B81282FB5
:1016A00030E081E090E0022E02C0880F991F0A947A
:1016B000E2F7809584238C9316C08C81813099F455
:1016C000AAE3B0E0EAE3F0E08081482F8B81282F85
:1016D00030E081E090E0022E02C0880F991F0A944A
:1016E000E2F7842B8C9381E0898395C08C818823D9
:1016F000A9F4A7E3B0E0E7E3F0E08081482F8B8115
:10170000282F30E081E090E0022E02C0880F991F60
:101710000A94E2F7809584238C9316C08C818130E3
:1017200099F4A7E3B0E0E7E3F0E08081482F8B81F4
:10173000282F30E081E090E0022E02C0880F991F30
:101740000A94E2F7842B8C9381E0898364C08C81B6
:101750008823A9F4A4E3B0E0E4E3F0E08081482F1B
:101760008B81282F30E081E090E0022E02C0880FAC
:10177000991F0A94E2F7809584238C9316C08C817C
:10178000813099F4A4E3B0E0E4E3F0E08081482FF5
:101790008B81282F30E081E090E0022E02C0880F7C
:1017A000991F0A94E2F7842B8C9381E0898333C0DC
:1017B0008C818823A9F4A1E3B0E0E1E3F0E080812B
:1017C000482F8B81282F30E081E090E0022E02C06C
:1017D000880F991F0A94E2F7809584238C9316C092
:1017E0008C81813099F4A1E3B0E0E1E3F0E0808105
:1017F000482F8B81282F30E081E090E0022E02C03C
:10180000880F991F0A94E2F7842B8C9381E08983D7
:1018100002C083E08983898126960FB6F894DEBFE3
:101820000FBECDBFCF91DF910895DF93CF9300D04E
:1018300000D00F92CDB7DEB78A836B8319828A817D
:10184000282F30E03D832C838C819D818130910550
:10185000E1F02C813D81223031052CF48C819D8179
:10186000009761F027C02C813D8122303105A1F025
:101870008C819D8183309105B1F01CC0EAE3F0E0DA
:101880008B81808381E0898317C0E7E3F0E08B815F
:10189000808381E0898310C0E4E3F0E08B81808362
:1018A00081E0898309C0E1E3F0E08B81808381E0FE
:1018B000898302C083E0898389810F900F900F9004
:1018C0000F900F90CF91DF910895DF93CF9300D0C9
:1018D00000D000D0CDB7DEB78A836B834C831982EA
:1018E0008A81282F30E03E832D838D819E81813037
:1018F000910509F448C02D813E81223031052CF438
:101900008D819E81009771F0D1C02D813E81223062
:10191000310509F469C08D819E818330910509F4F8
:1019200094C0C4C08C818823A9F4ABE3B0E0EBE39E
:10193000F0E08081482F8B81282F30E081E090E01B
:10194000022E02C0880F991F0A94E2F78095842323
:101950008C9316C08C81813099F4ABE3B0E0EBE35B
:10196000F0E08081482F8B81282F30E081E090E0EB
:10197000022E02C0880F991F0A94E2F7842B8C93E1
:1019800081E0898395C08C818823A9F4A8E3B0E025
:10199000E8E3F0E08081482F8B81282F30E081E060
:1019A00090E0022E02C0880F991F0A94E2F78095FA
:1019B00084238C9316C08C81813099F4A8E3B0E025
:1019C000E8E3F0E08081482F8B81282F30E081E030
:1019D00090E0022E02C0880F991F0A94E2F7842B30
:1019E0008C9381E0898364C08C818823A9F4A5E36A
:1019F000B0E0E5E3F0E08081482F8B81282F30E0D4
:101A000081E090E0022E02C0880F991F0A94E2F74D
:101A1000809584238C9316C08C81813099F4A5E342
:101A2000B0E0E5E3F0E08081482F8B81282F30E0A3
:101A300081E090E0022E02C0880F991F0A94E2F71D
:101A4000842B8C9381E0898333C08C818823A9F413
:101A5000A2E3B0E0E2E3F0E08081482F8B81282F01
:101A600030E081E090E0022E02C0880F991F0A94B6
:101A7000E2F7809584238C9316C08C81813099F491
:101A8000A2E3B0E0E2E3F0E08081482F8B81282FD1
:101A900030E081E090E0022E02C0880F991F0A9486
:101AA000E2F7842B8C9381E0898302C083E08983F1
:101AB000898126960FB6F894DEBF0FBECDBFCF91B9
:101AC000DF910895DF93CF9300D000D00F92CDB770
:101AD000DEB78A836B8319828A81282F30E03D83A9
:101AE0002C838C819D818130910561F12C813D8118
:101AF000223031052CF48C819D81009769F064C0FF
:101B00002C813D812230310599F18C819D8183307A
:101B1000910509F443C058C0ABE3B0E0EBE3F0E05B
:101B20008081482F8B81282F30E081E090E0022EC9
:101B300002C0880F991F0A94E2F784278C9381E0F2
:101B4000898344C0A8E3B0E0E8E3F0E08081482F57
:101B50008B81282F30E081E090E0022E02C0880FB8
:101B6000991F0A94E2F784278C9381E089832EC021
:101B7000A5E3B0E0E5E3F0E08081482F8B81282FDA
:101B800030E081E090E0022E02C0880F991F0A9495
:101B9000E2F784278C9381E0898318C0A2E3B0E048
:101BA000E2E3F0E08081482F8B81282F30E081E054
:101BB00090E0022E02C0880F991F0A94E2F7842752
:101BC0008C9381E0898302C083E0898389810F90AF
:101BD0000F900F900F900F90CF91DF910895DF93AA
:101BE000CF9300D000D00F92CDB7DEB78A836B833E
:101BF00019828A81282F30E03D832C838C819D813E
:101C000081309105E1F02C813D81223031052CF4A9
:101C10008C819D81009761F027C02C813D8122300D
:101C20003105A1F08C819D8183309105B1F01CC0FC
:101C3000EBE3F0E08B81808381E0898317C0E8E3E8
:101C4000F0E08B81808381E0898310C0E5E3F0E0E0
:101C50008B81808381E0898309C0E2E3F0E08B819E
:101C6000808381E0898302C083E0898389810F902A
:101C70000F900F900F900F90CF91DF910895DF9309
:101C8000CF9300D000D00F92CDB7DEB789836A839F
:101C90008981282F30E03D832C834C815D81413048
:101CA000510549F18C819D818230910534F42C815C
:101CB0003D812115310561F057C04C815D81423075
:101CC000510561F18C819D8183309105D1F14CC02A
:101CD000E9E3F0E08081282F30E08A81882F90E0CE
:101CE000A90102C0559547958A95E2F7CA01582F78
:101CF00051705B833AC0E6E3F0E08081282F30E04A
:101D00008A81882F90E0A90102C0559547958A9550
:101D1000E2F7CA01582F51705B8327C0E3E3F0E07C
:101D20008081282F30E08A81882F90E0A90102C0AD
:101D3000559547958A95E2F7CA01582F51705B83F4
:101D400014C0E0E3F0E08081282F30E08A81882F02
:101D500090E0A90102C0559547958A95E2F7CA011E
:101D6000582F51705B8301C01B828B810F900F90A5
:101D70000F900F900F90CF91DF910895DF93CF9345
:101D800000D0CDB7DEB78A83198283E066E040E0F9
:101D90000E94650C82E06A810E94EF0D0E94D211C0
:101DA00081E0898389810F900F90CF91DF91089511
:101DB000DF93CF9300D0CDB7DEB78A83198283E05B
:101DC00066E041E00E94650C82E06A810E94EF0DAE
:101DD0000E94D21181E0898389810F900F90CF9169
:101DE000DF910895DF93CF930F92CDB7DEB71982BD
:101DF0000E94A8110E94D3120E945B130E942F140C
:101E00000E94031581E0898389810F90CF91DF9132
:101E10000895DF93CF9300D0CDB7DEB78A831982C0
:101E200083E066E040E00E94650C8A81982F9295DD
:101E30009F7082E0692F0E94EF0D0E94D2118A816B
:101E4000982F9F7082E0692F0E94EF0D0E94D2119F
:101E500081E0898389810F900F90CF91DF91089560
:101E6000DF93CF9300D0CDB7DEB78A83198283E0AA
:101E700066E041E00E94650C8A81982F92959F70E0
:101E800082E0692F0E94EF0D0E94D2118A81982F63
:101E90009F7082E0692F0E94EF0D0E94D21181E0B5
:101EA000898389810F900F90CF91DF910895DF93FF
:101EB000CF930F92CDB7DEB719820E94BD110E9459
:101EC0008B150E94D4160E9469180E94FE1981E0A9
:101ED000898389810F90CF91DF910895DF93CF930C
:101EE00000D000D0CDB7DEB79C838B831A821982D5
:101EF0000EC08981282F30E08B819C81FC01E20F8C
:101F0000F31F80810E94D80E89818F5F8983898128
:101F1000282F30E08B819C81FC01E20FF31F808130
:101F2000882339F781E08A838A810F900F900F9080
:101F30000F90CF91DF910895DF93CF9300D000D021
:101F4000CDB7DEB78B836C831A828C81882319F41A
:101F50008B81898306C08C81813019F48B81805CF0
:101F60008983898180580E94BE0E81E08A838A819C
:101F70000F900F900F900F90CF91DF910895EF92F7
:101F8000FF920F931F93DF93CF93CDB7DEB72997BF
:101F90000FB6F894DEBF0FBECDBF6E837F838887F8
:101FA00099871D8281E090E0A0E0B0E089839A8368
:101FB000AB83BC838E819F81A885B9850097A105DD
:101FC000B10521F480E30E94D80E50C08E819F811C
:101FD000A885B985BB230CF049C08DE20E94D80EBC
:101FE0008E819F81A885B985B095A09590958195A2
:101FF0009F4FAF4FBF4F8E839F83A887B98736C04F
:1020000089819A81AB81BC812AE030E040E050E0D8
:10201000BC01CD010E9409207B018C018E819F8132
:10202000A885B9852AE030E040E050E0BC01CD0150
:102030000E943420DC01CB018E0D9F1DA01FB11F1B
:1020400089839A83AB83BC838E819F81A885B98560
:102050002AE030E040E050E0BC01CD010E94342095
:10206000DA01C9018E839F83A887B9878E819F81FA
:10207000A885B9850097A105B10511F623C089810E
:102080009A81AB81BC812AE030E040E050E0BC01A5
:10209000CD010E943420DC01CB01805D0E94D80E6E
:1020A00089819A81AB81BC812AE030E040E050E038
:1020B000BC01CD010E943420DA01C90189839A83D1
:1020C000AB83BC8389819A81AB81BC8181309105CE
:1020D000A105B105A1F681E08D838D8129960FB60A
:1020E000F894DEBF0FBECDBFCF91DF911F910F914E
:1020F000FF90EF900895DF93CF9300D000D0CDB73D
:10210000DEB79C838B831A8219820EC08981282FA7
:1021100030E08B819C81FC01E20FF31F80810E94E3
:10212000300F89818F5F89838981282F30E08B81EF
:102130009C81FC01E20FF31F8081882339F781E045
:102140008A838A810F900F900F900F90CF91DF912B
:102150000895DF93CF9300D000D0CDB7DEB78B8347
:102160006C831A828C81882319F48B81898306C041
:102170008C81813019F48B81805C898389818058BE
:102180000E94090F81E08A838A810F900F900F903F
:102190000F90CF91DF910895EF92FF920F931F93CD
:1021A000DF93CF93CDB7DEB729970FB6F894DEBF94
:1021B0000FBECDBF6E837F83888799871D8281E0A4
:1021C00090E0A0E0B0E089839A83AB83BC838E81EA
:1021D0009F81A885B9850097A105B10521F480E309
:1021E0000E94300F50C08E819F81A885B985BB2386
:1021F0000CF049C08DE20E94300F8E819F81A8852E
:10220000B985B095A095909581959F4FAF4FBF4FE1
:102210008E839F83A887B98736C089819A81AB81D5
:10222000BC812AE030E040E050E0BC01CD010E94DA
:1022300009207B018C018E819F81A885B9852AE0C8
:1022400030E040E050E0BC01CD010E943420DC01D0
:10225000CB018E0D9F1DA01FB11F89839A83AB8375
:10226000BC838E819F81A885B9852AE030E040E05B
:1022700050E0BC01CD010E943420DA01C9018E83F7
:102280009F83A887B9878E819F81A885B98500978C
:10229000A105B10511F623C089819A81AB81BC816A
:1022A0002AE030E040E050E0BC01CD010E94342043
:1022B000DC01CB01805D0E94300F89819A81AB8166
:1022C000BC812AE030E040E050E0BC01CD010E943A
:1022D0003420DA01C90189839A83AB83BC83898165
:1022E0009A81AB81BC8181309105A105B105A1F630
:1022F00081E08D838D8129960FB6F894DEBF0FBEE5
:10230000CDBFCF91DF911F910F91FF90EF90089576
:10231000DF93CF930F92CDB7DEB7198281E00E9491
:10232000BE0E81E0898389810F90CF91DF9108955E
:10233000DF93CF930F92CDB7DEB7198281E00E9471
:10234000090F81E0898389810F90CF91DF910895F2
:10235000DF93CF93CDB7DEB782E06FEF0E94150C0D
:1023600083E066E041E00E94180B83E067E041E013
:102370000E94180BCF91DF910895DF93CF93CDB7D3
:10238000DEB782E06FE00E94150C83E066E041E07A
:102390000E94180B83E067E041E00E94180BCF9188
:1023A000DF910895DF93CF93CDB7DEB76C970FB66B
:1023B000F894DEBF0FBECDBF83E067E041E00E942E
:1023C000650C80E090E0A0E0B0E4898F9A8FAB8F3D
:1023D000BC8F698D7A8D8B8D9C8D20E030E04AEF2B
:1023E00054E40E941F02DC01CB018D8B9E8BAF8BCE
:1023F000B88F6D897E898F89988D20E030E040E824
:102400005FE30E94250488232CF481E090E09C8BFC
:102410008B8B3FC06D897E898F89988D20E03FEF3F
:102420004FE757E40E94C50318164CF5698D7A8D65
:102430008B8D9C8D20E030E040E251E40E941F0231
:10244000DC01CB01BC01CD010E944900DC01CB01C4
:102450009C8B8B8B0FC088EC90E09A8B898B898941
:102460009A890197F1F79A8B898B8B899C890197BF
:102470009C8B8B8B8B899C89009769F714C06D8925
:102480007E898F89988D0E944900DC01CB019C8B4D
:102490008B8B8B899C89988B8F878F8598890197E7
:1024A000F1F7988B8F8783E067E040E00E94650C2E
:1024B00080E090E0A0EAB0E48B879C87AD87BE8780
:1024C0006B857C858D859E8520E030E04AEF54E465
:1024D0000E941F02DC01CB018F839887A987BA87EE
:1024E0006F81788589859A8520E030E040E85FE358
:1024F0000E94250488232CF481E090E09E838D8344
:102500003FC06F81788589859A8520E03FEF4FE74E
:1025100057E40E94C50318164CF56B857C858D85A4
:102520009E8520E030E040E251E40E941F02DC0181
:10253000CB01BC01CD010E944900DC01CB019E838F
:102540008D830FC088EC90E09C838B838B819C8172
:102550000197F1F79C838B838D819E8101979E83E8
:102560008D838D819E81009769F714C06F81788576
:1025700089859A850E944900DC01CB019E838D8369
:102580008D819E819A83898389819A810197F1F750
:102590009A8389836C960FB6F894DEBF0FBECDBFC9
:1025A000CF91DF910895DF93CF93CDB7DEB72E970C
:1025B0000FB6F894DEBF0FBECDBF80E090E0A8E478
:1025C000B2E48B879C87AD87BE876B857C858D85C4
:1025D0009E8520E030E04AEF54E40E941F02DC01B7
:1025E000CB018F839887A987BA876F817885898582
:1025F0009A8520E030E040E85FE30E9425048823CC
:102600002CF481E090E09E838D833FC06F817885BC
:1026100089859A8520E03FEF4FE757E40E94C50384
:1026200018164CF56B857C858D859E8520E030E005
:1026300040E251E40E941F02DC01CB01BC01CD014C
:102640000E944900DC01CB019E838D830FC088EC82
:1026500090E09C838B838B819C810197F1F79C8315
:102660008B838D819E8101979E838D838D819E8139
:10267000009769F714C06F81788589859A850E94D3
:102680004900DC01CB019E838D838D819E819A83DD
:10269000898389819A810197F1F79A8389838CE3F1
:1026A0000E94BE0E2E960FB6F894DEBF0FBECDBFB1
:1026B000CF91DF910895DF93CF93CDB7DEB76897C1
:1026C0000FB6F894DEBF0FBECDBF80E090E0A8E467
:1026D000B2E48D8B9E8BAF8BB88F6D897E898F898D
:1026E000988D2BEA3AEA4AE250E40E941F02DC018C
:1026F000CB01898B9A8BAB8BBC8B69897A898B894F
:102700009C8920E030E040E85FE30E9425048823B4
:102710001CF481E0888B91C069897A898B899C89B6
:1027200020E030E04FE753E40E94C50318160CF098
:102730007BC06D897E898F89988D20E030E04AE7E3
:1027400054E40E941903DC01CB018C879D87AE877E
:10275000BF876C857D858E859F8520E030E04AEFC0
:1027600054E40E941F02DC01CB0188879987AA8765
:10277000BB87688579858A859B8520E030E040E8C5
:102780005FE30E94250488232CF481E090E09F837E
:102790008E833FC0688579858A859B8520E03FEFE1
:1027A0004FE757E40E94C50318164CF56C857D85EC
:1027B0008E859F8520E030E040E251E40E941F02B8
:1027C000DC01CB01BC01CD010E944900DC01CB0141
:1027D0009F838E830FC088EC90E09D838C838C81D7
:1027E0009D810197F1F79D838C838E819F81019755
:1027F0009F838E838E819F81009769F724C06885AF
:1028000079858A859B850E944900DC01CB019F83E5
:102810008E838E819F819B838A838A819B8101978E
:10282000F1F79B838A830FC069897A898B899C8998
:102830000E944900DC01CB01888B888989838981CA
:102840008A95F1F789838EE00E94BE0E68960FB6D6
:10285000F894DEBF0FBECDBFCF91DF910895DF9317
:10286000CF93CDB7DEB768970FB6F894DEBF0FBE33
:10287000CDBF80E090E0A8E4B2E48D8B9E8BAF8B5F
:10288000B88F6D897E898F89988D2BEA3AEA4AE262
:1028900050E40E941F02DC01CB01898B9A8BAB8B29
:1028A000BC8B69897A898B899C8920E030E040E87B
:1028B0005FE30E94250488231CF481E0888B91C08B
:1028C00069897A898B899C8920E030E04FE753E45D
:1028D0000E94C50318160CF07BC06D897E898F8914
:1028E000988D20E030E04AE754E40E941903DC01AF
:1028F000CB018C879D87AE87BF876C857D858E8554
:102900009F8520E030E04AEF54E40E941F02DC0182
:10291000CB0188879987AA87BB87688579858A854F
:102920009B8520E030E040E85FE30E942504882397
:102930002CF481E090E09F838E833FC06885798589
:102940008A859B8520E03FEF4FE757E40E94C5034F
:1029500018164CF56C857D858E859F8520E030E0CE
:1029600040E251E40E941F02DC01CB01BC01CD0119
:102970000E944900DC01CB019F838E830FC088EC4D
:1029800090E09D838C838C819D810197F1F79D83DD
:102990008C838E819F8101979F838E838E819F81FF
:1029A000009769F724C0688579858A859B850E9490
:1029B0004900DC01CB019F838E838E819F819B83A5
:1029C0008A838A819B810197F1F79B838A830FC059
:1029D00069897A898B899C890E944900DC01CB0135
:1029E000888B8889898389818A95F1F7898381E039
:1029F0000E94BE0E68960FB6F894DEBF0FBECDBF24
:102A0000CF91DF910895DF93CF93CDB7DEB72E97A7
:102A10000FB6F894DEBF0FBECDBF80E090E0A0E01F
:102A2000B0E48B879C87AD87BE876B857C858D8561
:102A30009E8520E030E04AEF54E40E941F02DC0152
:102A4000CB018F839887A987BA876F81788589851D
:102A50009A8520E030E040E85FE30E942504882367
:102A60002CF481E090E09E838D833FC06F81788558
:102A700089859A8520E03FEF4FE757E40E94C50320
:102A800018164CF56B857C858D859E8520E030E0A1
:102A900040E251E40E941F02DC01CB01BC01CD01E8
:102AA0000E944900DC01CB019E838D830FC088EC1E
:102AB00090E09C838B838B819C810197F1F79C83B1
:102AC0008B838D819E8101979E838D838D819E81D5
:102AD000009769F714C06F81788589859A850E946F
:102AE0004900DC01CB019E838D838D819E819A8379
:102AF000898389819A810197F1F79A83898386E096
:102B00000E94BE0E2E960FB6F894DEBF0FBECDBF4C
:102B1000CF91DF910895DF93CF93CDB7DEB7A6971E
:102B20000FB6F894DEBF0FBECDBF80E090E0A8E402
:102B3000B2E48BA39CA3ADA3BEA36BA17CA18DA18A
:102B40009EA120E030E04AEF54E40E941F02DC0125
:102B5000CB018F8F98A3A9A3BAA36F8D78A189A168
:102B60009AA120E030E040E85FE30E94250488233A
:102B70002CF481E090E09E8F8D8F3FC06F8D78A107
:102B800089A19AA120E03FEF4FE757E40E94C503D7
:102B900018164CF56BA17CA18DA19EA120E030E020
:102BA00040E251E40E941F02DC01CB01BC01CD01D7
:102BB0000E944900DC01CB019E8F8D8F0FC088ECF5
:102BC00090E09C8F8B8F8B8D9C8D0197F1F79C8F64
:102BD0008B8F8D8D9E8D01979E8F8D8F8D8D9E8D70
:102BE000009769F714C06F8D78A189A19AA10E94FE
:102BF0004900DC01CB019E8F8D8F8D8D9E8D9A8F2C
:102C0000898F898D9A8D0197F1F79A8F898F82E04C
:102C10000E94090F80E090E0A0E2B1E48D8B9E8BD2
:102C2000AF8BB88F6D897E898F89988D2BEA3AEAB0
:102C30004AE250E40E941F02DC01CB01898B9A8B8F
:102C4000AB8BBC8B69897A898B899C8920E030E0C9
:102C500040E85FE30E94250488231CF481E0888B10
:102C600091C069897A898B899C8920E030E04FE79F
:102C700053E40E94C50318160CF07BC06D897E8951
:102C80008F89988D20E030E04AE754E40E941903D0
:102C9000DC01CB018C879D87AE87BF876C857D85E6
:102CA0008E859F8520E030E04AEF54E40E941F02A9
:102CB000DC01CB0188879987AA87BB8768857985DE
:102CC0008A859B8520E030E040E85FE30E94250490
:102CD00088232CF481E090E09F838E833FC0688539
:102CE00079858A859B8520E03FEF4FE757E40E9476
:102CF000C50318164CF56C857D858E859F8520E073
:102D000030E040E251E40E941F02DC01CB01BC0133
:102D1000CD010E944900DC01CB019F838E830FC04F
:102D200088EC90E09D838C838C819D810197F1F7E5
:102D30009D838C838E819F8101979F838E838E815B
:102D40009F81009769F724C0688579858A859B856E
:102D50000E944900DC01CB019F838E838E819F817D
:102D60009B838A838A819B810197F1F79B838A8366
:102D70000FC069897A898B899C890E944900DC018E
:102D8000CB01888B8889898389818A95F1F789832A
:102D900088E20E94090FA6960FB6F894DEBF0FBE18
:102DA000CDBFCF91DF910895DF93CF93CDB7DEB73D
:102DB000E0970FB6F894DEBF0FBECDBF80E090E085
:102DC000A8E4B2E48DA79EA7AFA7B8AB6DA57EA57A
:102DD0008FA598A92BEA3AEA4AE250E40E941F0222
:102DE000DC01CB0189A79AA7ABA7BCA769A57AA5E7
:102DF0008BA59CA520E030E040E85FE30E9425041D
:102E000088231CF481E088A791C069A57AA58BA5C9
:102E10009CA520E030E04FE753E40E94C50318165C
:102E20000CF07BC06DA57EA58FA598A920E030E0B1
:102E30004AE754E40E941903DC01CB018CA39DA353
:102E4000AEA3BFA36CA17DA18EA19FA120E030E025
:102E50004AEF54E40E941F02DC01CB0188A399A32E
:102E6000AAA3BBA368A179A18AA19BA120E030E01D
:102E700040E85FE30E94250488232CF481E090E081
:102E80009F8F8E8F3FC068A179A18AA19BA120E06E
:102E90003FEF4FE757E40E94C50318164CF56CA1AD
:102EA0007DA18EA19FA120E030E040E251E40E948C
:102EB0001F02DC01CB01BC01CD010E944900DC01F5
:102EC000CB019F8F8E8F0FC088EC90E09D8F8C8FF1
:102ED0008C8D9D8D0197F1F79D8F8C8F8E8D9F8DA1
:102EE00001979F8F8E8F8E8D9F8D009769F724C0DD
:102EF00068A179A18AA19BA10E944900DC01CB01B4
:102F00009F8F8E8F8E8D9F8D9B8F8A8F8A8D9B8DAD
:102F10000197F1F79B8F8A8F0FC069A57AA58BA5C2
:102F20009CA50E944900DC01CB0188A788A5898F58
:102F3000898D8A95F1F7898F80E00E94090F80E0E2
:102F400090E0A0E2B1E48D8B9E8BAF8BB88F6D8942
:102F50007E898F89988D2BEA3AEA4AE250E40E94F2
:102F60001F02DC01CB01898B9A8BAB8BBC8B6989EF
:102F70007A898B899C8920E030E040E85FE30E94F9
:102F8000250488231CF481E0888B91C069897A89A3
:102F90008B899C8920E030E04FE753E40E94C50311
:102FA00018160CF07BC06D897E898F89988D20E082
:102FB00030E04AE754E40E941903DC01CB018C871E
:102FC0009D87AE87BF876C857D858E859F8520E038
:102FD00030E04AEF54E40E941F02DC01CB018887F5
:102FE0009987AA87BB87688579858A859B8520E034
:102FF00030E040E85FE30E94250488232CF481E060
:1030000090E09F838E833FC0688579858A859B8504
:1030100020E03FEF4FE757E40E94C50318164CF538
:103020006C857D858E859F8520E030E040E251E40F
:103030000E941F02DC01CB01BC01CD010E944900AE
:10304000DC01CB019F838E830FC088EC90E09D83D1
:103050008C838C819D810197F1F79D838C838E8178
:103060009F8101979F838E838E819F81009769F74F
:1030700024C0688579858A859B850E944900DC018A
:10308000CB019F838E838E819F819B838A838A81DC
:103090009B810197F1F79B838A830FC069897A89A5
:1030A0008B899C890E944900DC01CB01888B88892F
:1030B000898389818A95F1F789838CE00E94090FC1
:1030C000E0960FB6F894DEBF0FBECDBFCF91DF9173
:1030D0000895DF93CF93CDB7DEB7E0970FB6F8949E
:1030E000DEBF0FBECDBF80E090E0A8E4B2E48DA7C4
:1030F0009EA7AFA7B8AB6DA57EA58FA598A92BEA13
:103100003AEA4AE250E40E941F02DC01CB0189A79F
:103110009AA7ABA7BCA769A57AA58BA59CA520E01B
:1031200030E040E85FE30E94250488231CF481E03E
:1031300088A791C069A57AA58BA59CA520E030E061
:103140004FE753E40E94C50318160CF07BC06DA531
:103150007EA58FA598A920E030E04AE754E40E94BC
:103160001903DC01CB018CA39DA3AEA3BFA36CA16B
:103170007DA18EA19FA120E030E04AEF54E40E949F
:103180001F02DC01CB0188A399A3AAA3BBA368A15A
:1031900079A18AA19BA120E030E040E85FE30E9492
:1031A000250488232CF481E090E09F8F8E8F3FC010
:1031B00068A179A18AA19BA120E03FEF4FE757E4E6
:1031C0000E94C50318164CF56CA17DA18EA19FA18C
:1031D00020E030E040E251E40E941F02DC01CB011C
:1031E000BC01CD010E944900DC01CB019F8F8E8F75
:1031F0000FC088EC90E09D8F8C8F8C8D9D8D0197FA
:10320000F1F79D8F8C8F8E8D9F8D01979F8F8E8F65
:103210008E8D9F8D009769F724C068A179A18AA13E
:103220009BA10E944900DC01CB019F8F8E8F8E8D68
:103230009F8D9B8F8A8F8A8D9B8D0197F1F79B8F36
:103240008A8F0FC069A57AA58BA59CA50E9449000D
:10325000DC01CB0188A788A5898F898D8A95F1F734
:10326000898F80E00E94090F80E090E0A0E2B1E445
:103270008D8B9E8BAF8BB88F6D897E898F89988D52
:103280002BEA3AEA4AE250E40E941F02DC01CB0139
:10329000898B9A8BAB8BBC8B69897A898B899C894A
:1032A00020E030E040E85FE30E94250488231CF41E
:1032B00081E0888B91C069897A898B899C8920E01B
:1032C00030E04FE753E40E94C50318160CF07BC0B2
:1032D0006D897E898F89988D20E030E04AE754E43B
:1032E0000E941903DC01CB018C879D87AE87BF87C5
:1032F0006C857D858E859F8520E030E04AEF54E423
:103300000E941F02DC01CB0188879987AA87BB87AF
:10331000688579858A859B8520E030E040E85FE319
:103320000E94250488232CF481E090E09F838E8303
:103330003FC0688579858A859B8520E03FEF4FE710
:1033400057E40E94C50318164CF56C857D858E8563
:103350009F8520E030E040E251E40E941F02DC0142
:10336000CB01BC01CD010E944900DC01CB019F8350
:103370008E830FC088EC90E09D838C838C819D812F
:103380000197F1F79D838C838E819F8101979F83A5
:103390008E838E819F81009769F724C06885798527
:1033A0008A859B850E944900DC01CB019F838E8327
:1033B0008E819F819B838A838A819B810197F1F70C
:1033C0009B838A830FC069897A898B899C890E9433
:1033D0004900DC01CB01888B8889898389818A95A2
:1033E000F1F7898381E00E94090FE0960FB6F89407
:1033F000DEBF0FBECDBFCF91DF910895DF93CF9396
:10340000CDB7DEB7A6970FB6F894DEBF0FBECDBF1F
:1034100080E090E0A0E0B0E48BA39CA3ADA3BEA3AA
:103420006BA17CA18DA19EA120E030E04AEF54E485
:103430000E941F02DC01CB018F8F98A3A9A3BAA31E
:103440006F8D78A189A19AA120E030E040E85FE388
:103450000E94250488232CF481E090E09E8F8D8FBC
:103460003FC06F8D78A189A19AA120E03FEF4FE77F
:1034700057E40E94C50318164CF56BA17CA18DA1E1
:103480009EA120E030E040E251E40E941F02DC01F6
:10349000CB01BC01CD010E944900DC01CB019E8F14
:1034A0008D8F0FC088EC90E09C8F8B8F8B8D9C8DC7
:1034B0000197F1F79C8F8B8F8D8D9E8D01979E8F3D
:1034C0008D8F8D8D9E8D009769F714C06F8D78A1BB
:1034D00089A19AA10E944900DC01CB019E8F8D8FAA
:1034E0008D8D9E8D9A8F898F898D9A8D0197F1F799
:1034F0009A8F898F80E00E94090F80E090E0A0E21F
:10350000B1E48D8B9E8BAF8BB88F6D897E898F894F
:10351000988D2BEA3AEA4AE250E40E941F02DC014D
:10352000CB01898B9A8BAB8BBC8B69897A898B8910
:103530009C8920E030E040E85FE30E942504882376
:103540001CF481E0888B91C069897A898B899C8978
:1035500020E030E04FE753E40E94C50318160CF05A
:103560007BC06D897E898F89988D20E030E04AE7A5
:1035700054E40E941903DC01CB018C879D87AE8740
:10358000BF876C857D858E859F8520E030E04AEF82
:1035900054E40E941F02DC01CB0188879987AA8727
:1035A000BB87688579858A859B8520E030E040E887
:1035B0005FE30E94250488232CF481E090E09F8340
:1035C0008E833FC0688579858A859B8520E03FEFA3
:1035D0004FE757E40E94C50318164CF56C857D85AE
:1035E0008E859F8520E030E040E251E40E941F027A
:1035F000DC01CB01BC01CD010E944900DC01CB0103
:103600009F838E830FC088EC90E09D838C838C8198
:103610009D810197F1F79D838C838E819F81019716
:103620009F838E838E819F81009769F724C0688570
:1036300079858A859B850E944900DC01CB019F83A7
:103640008E838E819F819B838A838A819B81019750
:10365000F1F79B838A830FC069897A898B899C895A
:103660000E944900DC01CB01888B8889898389818C
:103670008A95F1F7898386E00E94090FA6960FB616
:10368000F894DEBF0FBECDBFCF91DF910895DF93D9
:10369000CF9300D00F92CDB7DEB78A836B831982A8
:1036A0008A816B8140E00E94180B8A816B8141E026
:1036B0000E94650C81E0898389810F900F900F90A3
:1036C000CF91DF910895DF93CF9300D0CDB7DEB7D0
:1036D00089836A8389816A810E943F0E0F900F90CF
:1036E000CF91DF910895DF93CF9300D0CDB7DEB7B0
:1036F0008A8319828A816FE70E94150C81E0898391
:1037000089810F900F90CF91DF910895DF93CF9330
:1037100000D00F92CDB7DEB78A836B8319828B817D
:103720008A3070F48B81882F90E0FC01E859FF4FBC
:1037300090818A81692F0E94EF0D81E0898302C008
:1037400083E0898389810F900F900F90CF91DF9153
:1037500008950F931F93DF93CF93CDB7DEB7CE5568
:10376000D0400FB6F894DEBF0FBECDBF82E00E94FE
:103770002D0882E00E94290982E00E94180A0E9416
:103780000508CE018B5A9F4F6C969FAF8EAF6C97FA
:1037900082E790E06E969FAF8EAF6E9795E06F9642
:1037A0009FAF6F976E96EEADFFAD6E9700806E96F1
:1037B0008EAD9FAD6E9701966E969FAF8EAF6E9752
:1037C0006C96EEADFFAD6C9700826C968EAD9FADA2
:1037D0006C9701966C969FAF8EAF6C976F969FAD6E
:1037E0006F9791506F969FAF6F976F96EFAD6F97F2
:1037F000EE23C1F60E94DD0782E00E94731BCE011A
:103800008B5A9F4F0E944F060E945507CE018B5A3C
:103810009F4F0E94250788EE9FE10E94DD0887EFF9
:103820009FE10E94CC0980E090E20E948A0A80E039
:1038300060E00E94EF0D809184009AE0692F0E9461
:103840002820892F982F82E0692F0E94861B80E014
:1038500060E041E00E94650CFE01EF5AFF4F80E0FE
:1038600090E0A0E2B1E480839183A283B3838E01D0
:10387000035B1F4FFE01EF5AFF4F60817181828110
:10388000938120E030E04AEF54E40E941F02DC0103
:10389000CB01F80180839183A283B383FE01E35BB4
:1038A000FF4F608171818281938120E030E040E8A8
:1038B0005FE30E942504882344F4FE01E55BFF4F8B
:1038C00081E090E09183808364C0FE01E35BFF4F61
:1038D000608171818281938120E03FEF4FE757E45F
:1038E0000E94C50318160CF043C0FE01EF5AFF4FAB
:1038F000608171818281938120E030E040E251E477
:103900000E941F02DC01CB018E01055B1F4FBC0131
:10391000CD010E944900DC01CB01F8019183808335
:103920001FC0FE01E75BFF4F88EC90E0918380832E
:10393000FE01E75BFF4F808191810197F1F7FE0166
:10394000E75BFF4F91838083DE01A55BBF4FFE01E4
:10395000E55BFF4F80819181019711969C938E9337
:10396000FE01E55BFF4F808191810097D1F627C072
:103970008E01055B1F4FFE01E35BFF4F608171818C
:10398000828193810E944900DC01CB01F80191837F
:103990008083DE01A95BBF4FFE01E55BFF4F8081A5
:1039A00091818D939C93FE01E95BFF4F8081918112
:1039B0000197F1F7FE01E95BFF4F9183808380E07F
:1039C00060E040E00E94650C809184009AE0692FDD
:1039D0000E942820982F82E0692F0E94861B80E099
:1039E00061E041E00E94650CFE01ED5BFF4F80E06D
:1039F00090E0A0E2B1E480839183A283B3838E013F
:103A0000015C1F4FFE01ED5BFF4F60817181828180
:103A1000938120E030E04AEF54E40E941F02DC0171
:103A2000CB01F80180839183A283B383FE01FF96CB
:103A3000608171818281938120E030E040E85FE322
:103A40000E94250488232CF481E090E09EAF8DAF86
:103A500046C0FE01FF96608171818281938120E0E2
:103A60003FEF4FE757E40E94C503181664F5FE01C7
:103A7000ED5BFF4F608171818281938120E030E0B6
:103A800040E251E40E941F02DC01CB01BC01CD01E8
:103A90000E944900DC01CB019EAF8DAF0FC088ECC6
:103AA00090E09CAF8BAF8BAD9CAD0197F1F79CAFD5
:103AB0008BAF8DAD9EAD01979EAF8DAF8DAD9EADA1
:103AC000009769F716C0FE01FF96608171818281BF
:103AD00093810E944900DC01CB019EAF8DAF8DAD7B
:103AE0009EAD9AAF89AF89AD9AAD0197F1F79AAFC4
:103AF00089AF80E061E040E00E94650C8091850024
:103B00009AE0692F0E942820892F982F82E0692F40
:103B10000E94861B80E062E041E00E94650C80E02C
:103B200090E0A0E2B1E48DAB9EABAFABB8AF6DA9B6
:103B30007EA98FA998AD20E030E04AEF54E40E94BE
:103B40001F02DC01CB0189AB9AABABABBCAB69A963
:103B50007AA98BA99CA920E030E040E85FE30E94AD
:103B6000250488232CF481E090E098AB8FA73FC018
:103B700069A97AA98BA99CA920E03FEF4FE757E4F8
:103B80000E94C50318164CF56DA97EA98FA998ADA2
:103B900020E030E040E251E40E941F02DC01CB0152
:103BA000BC01CD010E944900DC01CB0198AB8FA77D
:103BB0000FC088EC90E09EA78DA78DA59EA50197CC
:103BC000F1F79EA78DA78FA598A9019798AB8FA70E
:103BD0008FA598A9009769F714C069A97AA98BA93C
:103BE0009CA90E944900DC01CB0198AB8FA78FA54F
:103BF00098A99CA78BA78BA59CA50197F1F79CA7DB
:103C00008BA780E062E040E00E94650C8091850017
:103C10009AE0692F0E942820982F82E0692F0E9445
:103C2000861B80E063E041E00E94650C80E090E04C
:103C3000A0E2B1E48FA398A7A9A7BAA76FA178A51E
:103C400089A59AA520E030E04AEF54E40E941F02C3
:103C5000DC01CB018BA39CA3ADA3BEA36BA17CA174
:103C60008DA19EA120E030E040E85FE30E942504A2
:103C700088232CF481E090E09AA389A33FC06BA134
:103C80007CA18DA19EA120E03FEF4FE757E40E9469
:103C9000C50318164CF56FA178A589A59AA520E053
:103CA00030E040E251E40E941F02DC01CB01BC0184
:103CB000CD010E944900DC01CB019AA389A30FC06A
:103CC00088EC90E098A38F8F8F8D98A10197F1F7E2
:103CD00098A38F8F89A19AA101979AA389A389A1FB
:103CE0009AA1009769F714C06BA17CA18DA19EA138
:103CF0000E944900DC01CB019AA389A389A19AA162
:103D00009E8F8D8F8D8D9E8D0197F1F79E8F8D8F5C
:103D100080E063E040E00E94650C809186009AE0BC
:103D2000692F0E942820892F982F82E0692F0E94F6
:103D3000861B80E064E041E00E94650C80E090E03A
:103D4000A0E2B1E4898F9A8FAB8FBC8F698D7A8D99
:103D50008B8D9C8D20E030E04AEF54E40E941F02DE
:103D6000DC01CB018D8B9E8BAF8BB88F6D897E89EB
:103D70008F89988D20E030E040E85FE30E942504C1
:103D800088232CF481E090E09C8B8B8B3FC06D8965
:103D90007E898F89988D20E03FEF4FE757E40E949E
:103DA000C50318164CF5698D7A8D8B8D9C8D20E09E
:103DB00030E040E251E40E941F02DC01CB01BC0173
:103DC000CD010E944900DC01CB019C8B8B8B0FC085
:103DD00088EC90E09A8B898B89899A890197F1F711
:103DE0009A8B898B8B899C8901979C8B8B8B8B8978
:103DF0009C89009769F714C06D897E898F89988D99
:103E00000E944900DC01CB019C8B8B8B8B899C89A8
:103E1000988B8F878F8598890197F1F7988B8F877B
:103E200080E064E040E00E94650C809186009AE0AA
:103E3000692F0E942820982F82E0692F0E94861BFC
:103E400080E065E041E00E94650C80E090E0A0E247
:103E5000B1E48B879C87AD87BE876B857C858D851C
:103E60009E8520E030E04AEF54E40E941F02DC010E
:103E7000CB018F839887A987BA876F8178858985D9
:103E80009A8520E030E040E85FE30E942504882323
:103E90002CF481E090E09E838D833FC06F81788514
:103EA00089859A8520E03FEF4FE757E40E94C503DC
:103EB00018164CF56B857C858D859E8520E030E05D
:103EC00040E251E40E941F02DC01CB01BC01CD01A4
:103ED0000E944900DC01CB019E838D830FC088ECDA
:103EE00090E09C838B838B819C810197F1F79C836D
:103EF0008B838D819E8101979E838D838D819E8191
:103F0000009769F794CC6F81788589859A850E949E
:103F10004900DC01CB019E838D838D819E819A8334
:103F2000898389819A810197F1F79A8389837FCC6C
:103F3000DF93CF93CDB7DEB780918200909183005D
:103F400001969093830080938200809182009091EB
:103F500083002FE0803A9207C1F5809184008B3373
:103F600030F4809184008F5F809384002AC0809118
:103F700084008B3331F510928400809185008B335F
:103F800030F4809185008F5F809385001AC0809106
:103F900085008B33B1F410928500809186008731C3
:103FA00030F4809186008F5F809386000AC08091F4
:103FB0008600873131F410928400109285001092AF
:103FC00086001092830010928200CF91DF910895B5
:103FD000DF93CF93CDB7DEB71092840010928500A7
:103FE000109286000E944607CF91DF910895DF93DB
:103FF000CF93CDB7DEB70E944607CF91DF910895EA
:10400000DF93CF93CDB7DEB70E945507CF91DF91F5
:104010000895629FD001739FF001829FE00DF11D12
:10402000649FE00DF11D929FF00D839FF00D749F32
:10403000F00D659FF00D9927729FB00DE11DF91FDE
:10404000639FB00DE11DF91FBD01CF01112408953B
:10405000991B79E004C0991F961708F0961B881FDA
:104060007A95C9F78095089597FB092E05260ED0FD
:1040700057FD04D014D00AD0001C38F45095409558
:10408000309521953F4F4F4F5F4F0895F6F790952C
:104090008095709561957F4F8F4F9F4F0895A1E256
:1040A0001A2EAA1BBB1BFD010DC0AA1FBB1FEE1FB2
:1040B000FF1FA217B307E407F50720F0A21BB30BFD
:1040C000E40BF50B661F771F881F991F1A9469F779
:1040D00060957095809590959B01AC01BD01CF01D5
:1040E00008952F923F924F925F926F927F928F929C
:1040F0009F92AF92BF92CF92DF92EF92FF920F9377
:104100001F93CF93DF93CDB7DEB7CA1BDB0B0FB680
:10411000F894DEBF0FBECDBF09942A88398848883D
:104120005F846E847D848C849B84AA84B984C884D3
:10413000DF80EE80FD800C811B81AA81B981CE0FCA
:10414000D11D0FB6F894DEBF0FBECDBFED010895AF
:04415000F894FFCF11
:104154000000000000000000C0F9A4B0999282F8A9
:0841640080900102FA981F008F
:00000001FF
